{
  "_format": "hh-sol-artifact-1",
  "contractName": "AdaptiveCode",
  "sourceName": "contracts/AdaptiveCode.sol",
  "abi": [
    {
      "inputs": [],
      "stateMutability": "nonpayable",
      "type": "constructor"
    },
    {
      "anonymous": false,
      "inputs": [
        {
          "indexed": true,
          "internalType": "address",
          "name": "owner",
          "type": "address"
        },
        {
          "indexed": true,
          "internalType": "address",
          "name": "spender",
          "type": "address"
        },
        {
          "indexed": false,
          "internalType": "uint256",
          "name": "value",
          "type": "uint256"
        }
      ],
      "name": "Approval",
      "type": "event"
    },
    {
      "anonymous": false,
      "inputs": [
        {
          "indexed": true,
          "internalType": "address",
          "name": "from",
          "type": "address"
        },
        {
          "indexed": true,
          "internalType": "address",
          "name": "to",
          "type": "address"
        },
        {
          "indexed": false,
          "internalType": "uint256",
          "name": "value",
          "type": "uint256"
        }
      ],
      "name": "Transfer",
      "type": "event"
    },
    {
      "inputs": [
        {
          "internalType": "address",
          "name": "owner",
          "type": "address"
        },
        {
          "internalType": "address",
          "name": "spender",
          "type": "address"
        }
      ],
      "name": "allowance",
      "outputs": [
        {
          "internalType": "uint256",
          "name": "",
          "type": "uint256"
        }
      ],
      "stateMutability": "view",
      "type": "function"
    },
    {
      "inputs": [
        {
          "internalType": "address",
          "name": "spender",
          "type": "address"
        },
        {
          "internalType": "uint256",
          "name": "amount",
          "type": "uint256"
        }
      ],
      "name": "approve",
      "outputs": [
        {
          "internalType": "bool",
          "name": "",
          "type": "bool"
        }
      ],
      "stateMutability": "nonpayable",
      "type": "function"
    },
    {
      "inputs": [],
      "name": "balance",
      "outputs": [
        {
          "internalType": "uint256",
          "name": "",
          "type": "uint256"
        }
      ],
      "stateMutability": "view",
      "type": "function"
    },
    {
      "inputs": [
        {
          "internalType": "address",
          "name": "account",
          "type": "address"
        }
      ],
      "name": "balanceOf",
      "outputs": [
        {
          "internalType": "uint256",
          "name": "",
          "type": "uint256"
        }
      ],
      "stateMutability": "view",
      "type": "function"
    },
    {
      "inputs": [
        {
          "internalType": "uint256",
          "name": "_value",
          "type": "uint256"
        }
      ],
      "name": "burnToken",
      "outputs": [
        {
          "internalType": "bool",
          "name": "",
          "type": "bool"
        }
      ],
      "stateMutability": "nonpayable",
      "type": "function"
    },
    {
      "inputs": [],
      "name": "decimals",
      "outputs": [
        {
          "internalType": "uint8",
          "name": "",
          "type": "uint8"
        }
      ],
      "stateMutability": "view",
      "type": "function"
    },
    {
      "inputs": [
        {
          "internalType": "address",
          "name": "spender",
          "type": "address"
        },
        {
          "internalType": "uint256",
          "name": "subtractedValue",
          "type": "uint256"
        }
      ],
      "name": "decreaseAllowance",
      "outputs": [
        {
          "internalType": "bool",
          "name": "",
          "type": "bool"
        }
      ],
      "stateMutability": "nonpayable",
      "type": "function"
    },
    {
      "inputs": [
        {
          "internalType": "address",
          "name": "spender",
          "type": "address"
        },
        {
          "internalType": "uint256",
          "name": "addedValue",
          "type": "uint256"
        }
      ],
      "name": "increaseAllowance",
      "outputs": [
        {
          "internalType": "bool",
          "name": "",
          "type": "bool"
        }
      ],
      "stateMutability": "nonpayable",
      "type": "function"
    },
    {
      "inputs": [
        {
          "internalType": "uint256",
          "name": "_value",
          "type": "uint256"
        }
      ],
      "name": "mintToken",
      "outputs": [
        {
          "internalType": "bool",
          "name": "",
          "type": "bool"
        }
      ],
      "stateMutability": "nonpayable",
      "type": "function"
    },
    {
      "inputs": [],
      "name": "name",
      "outputs": [
        {
          "internalType": "string",
          "name": "",
          "type": "string"
        }
      ],
      "stateMutability": "view",
      "type": "function"
    },
    {
      "inputs": [],
      "name": "symbol",
      "outputs": [
        {
          "internalType": "string",
          "name": "",
          "type": "string"
        }
      ],
      "stateMutability": "view",
      "type": "function"
    },
    {
      "inputs": [],
      "name": "totalSupply",
      "outputs": [
        {
          "internalType": "uint256",
          "name": "",
          "type": "uint256"
        }
      ],
      "stateMutability": "view",
      "type": "function"
    },
    {
      "inputs": [
        {
          "internalType": "address",
          "name": "to",
          "type": "address"
        },
        {
          "internalType": "uint256",
          "name": "amount",
          "type": "uint256"
        }
      ],
      "name": "transfer",
      "outputs": [
        {
          "internalType": "bool",
          "name": "",
          "type": "bool"
        }
      ],
      "stateMutability": "nonpayable",
      "type": "function"
    },
    {
      "inputs": [
        {
          "internalType": "address",
          "name": "from",
          "type": "address"
        },
        {
          "internalType": "address",
          "name": "to",
          "type": "address"
        },
        {
          "internalType": "uint256",
          "name": "amount",
          "type": "uint256"
        }
      ],
      "name": "transferFrom",
      "outputs": [
        {
          "internalType": "bool",
          "name": "",
          "type": "bool"
        }
      ],
      "stateMutability": "nonpayable",
      "type": "function"
    }
  ],
  "bytecode": "0x60806040523480156200001157600080fd5b506040518060400160405280600c81526020017f4164617074697665436f646500000000000000000000000000000000000000008152506040518060400160405280600381526020017f41444300000000000000000000000000000000000000000000000000000000008152508160039080519060200190620000969291906200024f565b508060049080519060200190620000af9291906200024f565b505050620000c633612710620000cc60201b60201c565b620004ab565b600073ffffffffffffffffffffffffffffffffffffffff168273ffffffffffffffffffffffffffffffffffffffff1614156200013f576040517f08c379a0000000000000000000000000000000000000000000000000000000008152600401620001369062000337565b60405180910390fd5b62000153600083836200024560201b60201c565b806002600082825462000167919062000387565b92505081905550806000808473ffffffffffffffffffffffffffffffffffffffff1673ffffffffffffffffffffffffffffffffffffffff1681526020019081526020016000206000828254620001be919062000387565b925050819055508173ffffffffffffffffffffffffffffffffffffffff16600073ffffffffffffffffffffffffffffffffffffffff167fddf252ad1be2c89b69c2b068fc378daa952ba7f163c4a11628f55a4df523b3ef8360405162000225919062000359565b60405180910390a362000241600083836200024a60201b60201c565b5050565b505050565b505050565b8280546200025d90620003ee565b90600052602060002090601f016020900481019282620002815760008555620002cd565b82601f106200029c57805160ff1916838001178555620002cd565b82800160010185558215620002cd579182015b82811115620002cc578251825591602001919060010190620002af565b5b509050620002dc9190620002e0565b5090565b5b80821115620002fb576000816000905550600101620002e1565b5090565b60006200030e601f8362000376565b91506200031b8262000482565b602082019050919050565b6200033181620003e4565b82525050565b600060208201905081810360008301526200035281620002ff565b9050919050565b600060208201905062000370600083018462000326565b92915050565b600082825260208201905092915050565b60006200039482620003e4565b9150620003a183620003e4565b9250827fffffffffffffffffffffffffffffffffffffffffffffffffffffffffffffffff03821115620003d957620003d862000424565b5b828201905092915050565b6000819050919050565b600060028204905060018216806200040757607f821691505b602082108114156200041e576200041d62000453565b5b50919050565b7f4e487b7100000000000000000000000000000000000000000000000000000000600052601160045260246000fd5b7f4e487b7100000000000000000000000000000000000000000000000000000000600052602260045260246000fd5b7f45524332303a206d696e7420746f20746865207a65726f206164647265737300600082015250565b61187080620004bb6000396000f3fe608060405234801561001057600080fd5b50600436106100ea5760003560e01c80637b47ec1a1161008c578063a9059cbb11610066578063a9059cbb14610287578063b69ef8a8146102b7578063c634d032146102d5578063dd62ed3e14610305576100ea565b80637b47ec1a1461020957806395d89b4114610239578063a457c2d714610257576100ea565b806323b872dd116100c857806323b872dd1461015b578063313ce5671461018b57806339509351146101a957806370a08231146101d9576100ea565b806306fdde03146100ef578063095ea7b31461010d57806318160ddd1461013d575b600080fd5b6100f7610335565b60405161010491906111db565b60405180910390f35b61012760048036038101906101229190610f97565b6103c7565b60405161013491906111c0565b60405180910390f35b6101456103ea565b604051610152919061133d565b60405180910390f35b61017560048036038101906101709190610f48565b6103f4565b60405161018291906111c0565b60405180910390f35b610193610423565b6040516101a09190611358565b60405180910390f35b6101c360048036038101906101be9190610f97565b61042c565b6040516101d091906111c0565b60405180910390f35b6101f360048036038101906101ee9190610ee3565b610463565b604051610200919061133d565b60405180910390f35b610223600480360381019061021e9190610fd3565b6104ab565b60405161023091906111c0565b60405180910390f35b6102416104c0565b60405161024e91906111db565b60405180910390f35b610271600480360381019061026c9190610f97565b610552565b60405161027e91906111c0565b60405180910390f35b6102a1600480360381019061029c9190610f97565b6105c9565b6040516102ae91906111c0565b60405180910390f35b6102bf6105ec565b6040516102cc919061133d565b60405180910390f35b6102ef60048036038101906102ea9190610fd3565b6105fc565b6040516102fc91906111c0565b60405180910390f35b61031f600480360381019061031a9190610f0c565b610611565b60405161032c919061133d565b60405180910390f35b606060038054610344906114a1565b80601f0160208091040260200160405190810160405280929190818152602001828054610370906114a1565b80156103bd5780601f10610392576101008083540402835291602001916103bd565b820191906000526020600020905b8154815290600101906020018083116103a057829003601f168201915b5050505050905090565b6000806103d2610698565b90506103df8185856106a0565b600191505092915050565b6000600254905090565b6000806103ff610698565b905061040c85828561086b565b6104178585856108f7565b60019150509392505050565b60006012905090565b600080610437610698565b90506104588185856104498589610611565b610453919061138f565b6106a0565b600191505092915050565b60008060008373ffffffffffffffffffffffffffffffffffffffff1673ffffffffffffffffffffffffffffffffffffffff168152602001908152602001600020549050919050565b60006104b73383610b78565b60019050919050565b6060600480546104cf906114a1565b80601f01602080910402602001604051908101604052809291908181526020018280546104fb906114a1565b80156105485780601f1061051d57610100808354040283529160200191610548565b820191906000526020600020905b81548152906001019060200180831161052b57829003601f168201915b5050505050905090565b60008061055d610698565b9050600061056b8286610611565b9050838110156105b0576040517f08c379a00000000000000000000000000000000000000000000000000000000081526004016105a7906112fd565b60405180910390fd5b6105bd82868684036106a0565b60019250505092915050565b6000806105d4610698565b90506105e18185856108f7565b600191505092915050565b60006105f733610463565b905090565b60006106083383610d4f565b60019050919050565b6000600160008473ffffffffffffffffffffffffffffffffffffffff1673ffffffffffffffffffffffffffffffffffffffff16815260200190815260200160002060008373ffffffffffffffffffffffffffffffffffffffff1673ffffffffffffffffffffffffffffffffffffffff16815260200190815260200160002054905092915050565b600033905090565b600073ffffffffffffffffffffffffffffffffffffffff168373ffffffffffffffffffffffffffffffffffffffff161415610710576040517f08c379a0000000000000000000000000000000000000000000000000000000008152600401610707906112dd565b60405180910390fd5b600073ffffffffffffffffffffffffffffffffffffffff168273ffffffffffffffffffffffffffffffffffffffff161415610780576040517f08c379a00000000000000000000000000000000000000000000000000000000081526004016107779061123d565b60405180910390fd5b80600160008573ffffffffffffffffffffffffffffffffffffffff1673ffffffffffffffffffffffffffffffffffffffff16815260200190815260200160002060008473ffffffffffffffffffffffffffffffffffffffff1673ffffffffffffffffffffffffffffffffffffffff168152602001908152602001600020819055508173ffffffffffffffffffffffffffffffffffffffff168373ffffffffffffffffffffffffffffffffffffffff167f8c5be1e5ebec7d5bd14f71427d1e84f3dd0314c0f7b2291e5b200ac8c7c3b9258360405161085e919061133d565b60405180910390a3505050565b60006108778484610611565b90507fffffffffffffffffffffffffffffffffffffffffffffffffffffffffffffffff81146108f157818110156108e3576040517f08c379a00000000000000000000000000000000000000000000000000000000081526004016108da9061125d565b60405180910390fd5b6108f084848484036106a0565b5b50505050565b600073ffffffffffffffffffffffffffffffffffffffff168373ffffffffffffffffffffffffffffffffffffffff161415610967576040517f08c379a000000000000000000000000000000000000000000000000000000000815260040161095e906112bd565b60405180910390fd5b600073ffffffffffffffffffffffffffffffffffffffff168273ffffffffffffffffffffffffffffffffffffffff1614156109d7576040517f08c379a00000000000000000000000000000000000000000000000000000000081526004016109ce906111fd565b60405180910390fd5b6109e2838383610eaf565b60008060008573ffffffffffffffffffffffffffffffffffffffff1673ffffffffffffffffffffffffffffffffffffffff16815260200190815260200160002054905081811015610a68576040517f08c379a0000000000000000000000000000000000000000000000000000000008152600401610a5f9061127d565b60405180910390fd5b8181036000808673ffffffffffffffffffffffffffffffffffffffff1673ffffffffffffffffffffffffffffffffffffffff16815260200190815260200160002081905550816000808573ffffffffffffffffffffffffffffffffffffffff1673ffffffffffffffffffffffffffffffffffffffff1681526020019081526020016000206000828254610afb919061138f565b925050819055508273ffffffffffffffffffffffffffffffffffffffff168473ffffffffffffffffffffffffffffffffffffffff167fddf252ad1be2c89b69c2b068fc378daa952ba7f163c4a11628f55a4df523b3ef84604051610b5f919061133d565b60405180910390a3610b72848484610eb4565b50505050565b600073ffffffffffffffffffffffffffffffffffffffff168273ffffffffffffffffffffffffffffffffffffffff161415610be8576040517f08c379a0000000000000000000000000000000000000000000000000000000008152600401610bdf9061129d565b60405180910390fd5b610bf482600083610eaf565b60008060008473ffffffffffffffffffffffffffffffffffffffff1673ffffffffffffffffffffffffffffffffffffffff16815260200190815260200160002054905081811015610c7a576040517f08c379a0000000000000000000000000000000000000000000000000000000008152600401610c719061121d565b60405180910390fd5b8181036000808573ffffffffffffffffffffffffffffffffffffffff1673ffffffffffffffffffffffffffffffffffffffff168152602001908152602001600020819055508160026000828254610cd191906113e5565b92505081905550600073ffffffffffffffffffffffffffffffffffffffff168373ffffffffffffffffffffffffffffffffffffffff167fddf252ad1be2c89b69c2b068fc378daa952ba7f163c4a11628f55a4df523b3ef84604051610d36919061133d565b60405180910390a3610d4a83600084610eb4565b505050565b600073ffffffffffffffffffffffffffffffffffffffff168273ffffffffffffffffffffffffffffffffffffffff161415610dbf576040517f08c379a0000000000000000000000000000000000000000000000000000000008152600401610db69061131d565b60405180910390fd5b610dcb60008383610eaf565b8060026000828254610ddd919061138f565b92505081905550806000808473ffffffffffffffffffffffffffffffffffffffff1673ffffffffffffffffffffffffffffffffffffffff1681526020019081526020016000206000828254610e32919061138f565b925050819055508173ffffffffffffffffffffffffffffffffffffffff16600073ffffffffffffffffffffffffffffffffffffffff167fddf252ad1be2c89b69c2b068fc378daa952ba7f163c4a11628f55a4df523b3ef83604051610e97919061133d565b60405180910390a3610eab60008383610eb4565b5050565b505050565b505050565b600081359050610ec88161180c565b92915050565b600081359050610edd81611823565b92915050565b600060208284031215610ef557600080fd5b6000610f0384828501610eb9565b91505092915050565b60008060408385031215610f1f57600080fd5b6000610f2d85828601610eb9565b9250506020610f3e85828601610eb9565b9150509250929050565b600080600060608486031215610f5d57600080fd5b6000610f6b86828701610eb9565b9350506020610f7c86828701610eb9565b9250506040610f8d86828701610ece565b9150509250925092565b60008060408385031215610faa57600080fd5b6000610fb885828601610eb9565b9250506020610fc985828601610ece565b9150509250929050565b600060208284031215610fe557600080fd5b6000610ff384828501610ece565b91505092915050565b6110058161142b565b82525050565b600061101682611373565b611020818561137e565b935061103081856020860161146e565b61103981611531565b840191505092915050565b600061105160238361137e565b915061105c82611542565b604082019050919050565b600061107460228361137e565b915061107f82611591565b604082019050919050565b600061109760228361137e565b91506110a2826115e0565b604082019050919050565b60006110ba601d8361137e565b91506110c58261162f565b602082019050919050565b60006110dd60268361137e565b91506110e882611658565b604082019050919050565b600061110060218361137e565b915061110b826116a7565b604082019050919050565b600061112360258361137e565b915061112e826116f6565b604082019050919050565b600061114660248361137e565b915061115182611745565b604082019050919050565b600061116960258361137e565b915061117482611794565b604082019050919050565b600061118c601f8361137e565b9150611197826117e3565b602082019050919050565b6111ab81611457565b82525050565b6111ba81611461565b82525050565b60006020820190506111d56000830184610ffc565b92915050565b600060208201905081810360008301526111f5818461100b565b905092915050565b6000602082019050818103600083015261121681611044565b9050919050565b6000602082019050818103600083015261123681611067565b9050919050565b600060208201905081810360008301526112568161108a565b9050919050565b60006020820190508181036000830152611276816110ad565b9050919050565b60006020820190508181036000830152611296816110d0565b9050919050565b600060208201905081810360008301526112b6816110f3565b9050919050565b600060208201905081810360008301526112d681611116565b9050919050565b600060208201905081810360008301526112f681611139565b9050919050565b600060208201905081810360008301526113168161115c565b9050919050565b600060208201905081810360008301526113368161117f565b9050919050565b600060208201905061135260008301846111a2565b92915050565b600060208201905061136d60008301846111b1565b92915050565b600081519050919050565b600082825260208201905092915050565b600061139a82611457565b91506113a583611457565b9250827fffffffffffffffffffffffffffffffffffffffffffffffffffffffffffffffff038211156113da576113d96114d3565b5b828201905092915050565b60006113f082611457565b91506113fb83611457565b92508282101561140e5761140d6114d3565b5b828203905092915050565b600061142482611437565b9050919050565b60008115159050919050565b600073ffffffffffffffffffffffffffffffffffffffff82169050919050565b6000819050919050565b600060ff82169050919050565b60005b8381101561148c578082015181840152602081019050611471565b8381111561149b576000848401525b50505050565b600060028204905060018216806114b957607f821691505b602082108114156114cd576114cc611502565b5b50919050565b7f4e487b7100000000000000000000000000000000000000000000000000000000600052601160045260246000fd5b7f4e487b7100000000000000000000000000000000000000000000000000000000600052602260045260246000fd5b6000601f19601f8301169050919050565b7f45524332303a207472616e7366657220746f20746865207a65726f206164647260008201527f6573730000000000000000000000000000000000000000000000000000000000602082015250565b7f45524332303a206275726e20616d6f756e7420657863656564732062616c616e60008201527f6365000000000000000000000000000000000000000000000000000000000000602082015250565b7f45524332303a20617070726f766520746f20746865207a65726f20616464726560008201527f7373000000000000000000000000000000000000000000000000000000000000602082015250565b7f45524332303a20696e73756666696369656e7420616c6c6f77616e6365000000600082015250565b7f45524332303a207472616e7366657220616d6f756e742065786365656473206260008201527f616c616e63650000000000000000000000000000000000000000000000000000602082015250565b7f45524332303a206275726e2066726f6d20746865207a65726f2061646472657360008201527f7300000000000000000000000000000000000000000000000000000000000000602082015250565b7f45524332303a207472616e736665722066726f6d20746865207a65726f20616460008201527f6472657373000000000000000000000000000000000000000000000000000000602082015250565b7f45524332303a20617070726f76652066726f6d20746865207a65726f2061646460008201527f7265737300000000000000000000000000000000000000000000000000000000602082015250565b7f45524332303a2064656372656173656420616c6c6f77616e63652062656c6f7760008201527f207a65726f000000000000000000000000000000000000000000000000000000602082015250565b7f45524332303a206d696e7420746f20746865207a65726f206164647265737300600082015250565b61181581611419565b811461182057600080fd5b50565b61182c81611457565b811461183757600080fd5b5056fea2646970667358221220a26e8e87df7472a555ba205907de4b3afcd755bf96b8321a93cf7570ba9bb07d64736f6c63430008040033",
  "linkReferences": {},
  "deployedLinkReferences": {}
}